:100000000C943A000C9457000C9457000C94570031
:100010000C9457000C9457000C9457000C94570004
:100020000C9457000C9457000C9457000C945700F4
:100030000C9457000C9457000C9457000C945700E4
:100040000C9457000C9457000C9457000C945700D4
:100050000C9457000C9457000C9457000C945700C4
:100060000C9457000C9457000C9457000C945700B4
:100070000C94570011241FBECFEFD4E0DEBFCDBFDC
:1000800011E0A0E0B1E0EAECF9E002C005900D92C9
:10009000AA3DB107D9F721E0AAEDB1E001C01D9258
:1000A000A93EB207E1F70E9447040C94E3040C94C4
:1000B0000000E1E6F0E080E880831082A89584B734
:1000C000877F84BFE0E6F0E08081886180831082D2
:1000D00008951092800084E0809381001092850042
:1000E0001092840008958091840090918500089575
:1000F000AC0180918400909185009C01241B350BFC
:10010000283E3340B0F70895209184003091850057
:10011000820F931F0C94780081110DC08091DA0139
:10012000882329F09091DB0181E0892702C080E0DB
:1001300090E08170089580E0089581110BC0809156
:10014000DA01811103C08091DB0102C080E090E000
:100150008170089580E00895811103C08091DA01D3
:10016000089580E00895811105C09091DA0181E041
:100170008927089580E00895EAEDF1E08081818388
:1001800089B1881F8827881F8083089557985F98B2
:100190000895853098F4673088F421E030E001C09C
:1001A000220F6A95EAF7E82FF0E0E352FE4F922F14
:1001B0009095808189234111822B80830895853019
:1001C00080F4673070F421E030E001C0220F6A95BE
:1001D000EAF7E82FF0E0E352FE4F8081282381E028
:1001E00009F480E008956091DC01E62FF0E0E3522D
:1001F000FE4F80810E9441018091DC018F5F85303C
:1002000018F48093DC0108951092DC010895EDED5F
:10021000F1E01082118212821382148208950E94EA
:100220001F010C9407019C01FC01FF2784A1832B73
:1002300084A395A1892F832B85A381E00895CF9373
:10024000DF93C7EBD1E0899199910E94130181E07E
:10025000C53CD807C1F783E090E40E94130180E019
:1002600090E80E94130183E090E10E94130183E073
:1002700090E80E94130183E090E2DF91CF910C940B
:100280001301E091E201F0E0EE0FFF1FE355FE4F96
:1002900020813181F901FF2795A1932B95A3E7EBED
:1002A000F1E097E020813181D901BB2795962C910F
:1002B000959780FF03C03095232301C0232B95968B
:1002C0002C938695915032969111ECCFE62FF0E069
:1002D000EE0FFF1FE355FE4F80819181FC01FF2748
:1002E00085A19095892385A36093E20108950097E5
:1002F00089F0FC012381621B67FD09C0062E000CFA
:10030000770B248130E081E0621773070CF080E006
:100310008170089580E00895CF93DF93FC01892BCD
:1003200079F18181481760F59281291748F5938109
:10033000A62FA91BA7FD24C00A2E000CBB0BC4814D
:10034000D0E0AC17BD07E4F4622F0E946504480FAB
:10035000858190E0BD010E946E040696242F2695AB
:1003600026952695E80FF91FE20FF11D808190E098
:10037000477002C0959587954A95E2F7817001C054
:1003800080E0DF91CF910895CF93DF93EC010E943D
:1003900069009E0140E050E062E17AE780E090E091
:1003A0000E9493043093E6012093E501DF91CF9101
:1003B00008958091E3019091E4010E9478002091DA
:1003C000E3013091E4018091E5019091E601820F13
:1003D000931F9093E4018093E3010895692F0C9497
:1003E000DF0041E0611101C040E0692F0C94C900B9
:1003F0000C94F1015F926F927F928F929F92AF92D5
:10040000BF92CF92DF92EF92FF920F931F93CF9301
:10041000DF93562E872E942E5C01E62EF72EC62FE4
:10042000660FDD0BC81BD10987FDD395072F770F0A
:10043000110B091B110997FD1395D7FF03C07724F2
:100440007A9402C07724739417FF03C066246A94D9
:1004500002C066246394D7FF03C0D195C195D1092A
:1004600017FF03C0119501951109C017D107A4F01A
:100470006E01D594C794F92EA51411F1692D8A2D1A
:100480009F2D0E94F101C01AD10AD7FE03C0CC0EE5
:10049000DD1EF60CA70CF0CF6801D594C794E82EAA
:1004A000B81471F0692D8E2D9B2D0E94F101CC1A8C
:1004B000DD0AD7FE03C0C00ED11EE70CB60CF0CF8C
:1004C000692DC701DF91CF911F910F91FF90EF90A0
:1004D000DF90CF90BF90AF909F908F907F906F9064
:1004E0005F900C94F101FF920F931F93CF93DF93D2
:1004F000D82FF92E162FC72F042F792F0E94FA011B
:10050000402F6D2F7C2F8D2F9F2D0E94FA01402FA1
:10051000612F7C2F812F9F2D0E94FA01402F612F88
:100520007C2F8D2F9C2F0E94FA01DF91CF911F917C
:100530000F91FF9008950E940701E0E0F1E0118A19
:1005400014860895DF92EF92FF920F931F93CF933B
:10055000DF93D82E7B01162F0F2D809102019091F1
:100560000301D0E0019799F50F2D0D1BE0910801D3
:10057000F09109018181C0E0D817B8F48091080199
:1005800090910901FC012281C21768F42C2F4D2F94
:100590006D2D0E948C01682F8E2D8C0F902F0E9444
:1005A000F101CF5FEBCFDF5FDFCFE0910801F0918A
:1005B00009018281C81740F460E08E2D8C0F902FC6
:1005C0000E94F101CF5FF1CF015030C0DF5F1E2DDF
:1005D0001D0FE0910801F09109018181C0E0D81759
:1005E000A8F48091080190910901FC012281C217B1
:1005F00068F72C2F4D2F6D2D0E948C01682F812FB5
:100600009F2D9C0F0E94F101CF5FEBCFE09108017D
:10061000F09109018281C81740F460E0812F9F2D7D
:100620009C0F0E94F101CF5FF1CF1F5F812F902FB0
:10063000DF91CF911F910F91FF90EF90DF90089580
:100640000F931F93CF938C01C0E0F80181918F012C
:10065000882341F00E94A202BC01CF5F853014F4D0
:1006600077FFF3CF8C2FCF911F910F9108950F93A8
:100670001F93CF93DF9310920C0140930D011092C2
:10068000100100910801109109010115110509F4EB
:1006900049C09B01EC01F8018181609106017091D4
:1006A000070190E00E946E04BC0180910A019091C4
:1006B0000B010E947F04CB016AE070E00E946E048F
:1006C00090930F0180930E01309305012093040154
:1006D00040E250E0BE0181E191E00E94D4048091AB
:1006E0000001909101010197E9F4FE0101900020C1
:1006F000E9F73197BF016C1B7D0BF80181818F5F9A
:100700000E94650481502091020130910301213043
:10071000310511F095E001C097E0981718F48EEFBD
:1007200080931001DF91CF911F910F910895209137
:100730000201309103012130310511F070E001C058
:1007400076E04FEF60E00E943703089590E09093C9
:1007500007018093060108959093010180930001A1
:1007600008959093030180930201089590930901E5
:100770008093080108958091E7019091E801019626
:100780009093E8018093E70120910E0130910F01D1
:100790008217930708F469C01092E8011092E701EC
:1007A000E0910C01F0E0E050FF4F818981110AC017
:1007B00080910D01823008F458C0815080930D0162
:1007C00010920C0180910C0190E0FC01E050FF4F71
:1007D0002189222309F449C040910001509101016F
:1007E000209110014115510521F04130510599F03A
:1007F00024C0211122C060910401709105018F5E17
:100800009E4F0E94200390E0019790910C01890F68
:1008100080930C0112C06091040170910501409118
:100820000201509103014130510511F4720F01C0D2
:10083000621B8F5E9E4F0E942003809110018F5F8C
:1008400080931001082E000C990BE0910801F091A3
:100850000901218130E0281739073CF4109210017A
:1008600080910C018F5F80930C010C94F300CF9367
:10087000DF93C0E0D1E09B878A870E940F0184E16B
:1008800090E09F838E83DF91CF910C949B020E9416
:10089000590084EF91E00E94370481E391E00E94C7
:1008A000B6038FE00E94A60381E090E00E94AC03B3
:1008B00085EC91E00E94970384EF91E00E94C401CF
:1008C0000E94D9010E94BB03FBCF002480FD060ECD
:1008D000660F11F08695D1F7802D089500245527D5
:1008E00004C0080E591F880F991F009729F07695AC
:1008F0006795B8F37105B9F7802D952F0895AA1B58
:10090000BB1B51E107C0AA1FBB1FA617B70710F0FA
:10091000A61BB70B881F991F5A95A9F7809590952C
:10092000BC01CD010895052E97FB1EF400940E9492
:10093000AA0457FD07D00E94B20407FC03D04EF46E
:100940000C94AA0450954095309521953F4F4F4FF8
:100950005F4F089590958095709561957F4F8F4F6B
:100960009F4F0895A1E21A2EAA1BBB1BFD010DC0CB
:10097000AA1FBB1FEE1FFF1FA217B307E407F5074F
:1009800020F0A21BB30BE40BF50B661F771F881F2B
:10099000991F1A9469F760957095809590959B01C1
:1009A000AC01BD01CF010895FB01DC014150504075
:1009B00048F001900D920020C9F701C01D924150EE
:0A09C0005040E0F70895F894FFCFCF
:1009CA000000000000001400000000000000000009
:1009DA00000000000000000000000000000000000D
:1009EA0000000000000000000000000000000000FD
:1009FA0000010305203B0200009220EB737D5FDEBD
:100A0A003DA552EA7A14004A222229BA2ED00500BC
:100A1A0014C0010020A4126A2B9A74A372A338EDA1
:100A2A00498F38CE2AA712AA2AAE491004101454A4
:100A3A0044380E11152A250000EA5BEB3A4F726B17
:100A4A003BCF73CF134F7AED5B9774247B5D564986
:100A5A0072FD5B6F5B6F7BEF136F7FEF57CE38973B
:100A6A00246D7B6D2BED5FAD5AAD24A77203400058
:100A7A0080031003800320004000200010000800BB
:100A8A000400020001537570657220446F64676543
:0A0A9A0062616C6C203930303000CE
:00000001FF
